{
  "contractName": "Bazaar",
  "abi": [
    {
      "inputs": [
        {
          "internalType": "address",
          "name": "_profileContract",
          "type": "address"
        }
      ],
      "stateMutability": "nonpayable",
      "type": "constructor"
    },
    {
      "anonymous": false,
      "inputs": [
        {
          "indexed": true,
          "internalType": "uint256",
          "name": "orderIdx",
          "type": "uint256"
        }
      ],
      "name": "DeliveryApproved",
      "type": "event"
    },
    {
      "anonymous": false,
      "inputs": [
        {
          "indexed": true,
          "internalType": "uint256",
          "name": "orderIdx",
          "type": "uint256"
        }
      ],
      "name": "OrderCanceled",
      "type": "event"
    },
    {
      "anonymous": false,
      "inputs": [
        {
          "components": [
            {
              "internalType": "uint256",
              "name": "id",
              "type": "uint256"
            },
            {
              "internalType": "address",
              "name": "seller",
              "type": "address"
            },
            {
              "internalType": "address",
              "name": "buyer",
              "type": "address"
            },
            {
              "internalType": "uint256",
              "name": "createdAt",
              "type": "uint256"
            },
            {
              "internalType": "uint256",
              "name": "deadline",
              "type": "uint256"
            },
            {
              "internalType": "enum Bazaar.OrderState",
              "name": "state",
              "type": "uint8"
            },
            {
              "internalType": "uint256",
              "name": "sourceAsset",
              "type": "uint256"
            },
            {
              "internalType": "address",
              "name": "targetAsset",
              "type": "address"
            },
            {
              "internalType": "uint256",
              "name": "sourceAmount",
              "type": "uint256"
            },
            {
              "internalType": "uint256",
              "name": "targetAmount",
              "type": "uint256"
            }
          ],
          "indexed": false,
          "internalType": "struct Bazaar.Order",
          "name": "order",
          "type": "tuple"
        }
      ],
      "name": "OrderPlaced",
      "type": "event"
    },
    {
      "anonymous": false,
      "inputs": [
        {
          "indexed": true,
          "internalType": "uint256",
          "name": "orderIdx",
          "type": "uint256"
        },
        {
          "indexed": true,
          "internalType": "address",
          "name": "buyer",
          "type": "address"
        }
      ],
      "name": "OrderSold",
      "type": "event"
    },
    {
      "anonymous": false,
      "inputs": [
        {
          "indexed": true,
          "internalType": "uint256",
          "name": "orderIdx",
          "type": "uint256"
        }
      ],
      "name": "OrderWithdrew",
      "type": "event"
    },
    {
      "anonymous": false,
      "inputs": [
        {
          "indexed": true,
          "internalType": "address",
          "name": "previousOwner",
          "type": "address"
        },
        {
          "indexed": true,
          "internalType": "address",
          "name": "newOwner",
          "type": "address"
        }
      ],
      "name": "OwnershipTransferred",
      "type": "event"
    },
    {
      "inputs": [
        {
          "internalType": "uint256",
          "name": "",
          "type": "uint256"
        }
      ],
      "name": "allowedSourceAssets",
      "outputs": [
        {
          "internalType": "string",
          "name": "symbol",
          "type": "string"
        },
        {
          "internalType": "bool",
          "name": "deleted",
          "type": "bool"
        }
      ],
      "stateMutability": "view",
      "type": "function"
    },
    {
      "inputs": [],
      "name": "buyFee",
      "outputs": [
        {
          "internalType": "uint256",
          "name": "",
          "type": "uint256"
        }
      ],
      "stateMutability": "view",
      "type": "function"
    },
    {
      "inputs": [],
      "name": "cancellationFee",
      "outputs": [
        {
          "internalType": "uint256",
          "name": "",
          "type": "uint256"
        }
      ],
      "stateMutability": "view",
      "type": "function"
    },
    {
      "inputs": [],
      "name": "feeTo",
      "outputs": [
        {
          "internalType": "address",
          "name": "",
          "type": "address"
        }
      ],
      "stateMutability": "view",
      "type": "function"
    },
    {
      "inputs": [],
      "name": "feeToSetter",
      "outputs": [
        {
          "internalType": "address",
          "name": "",
          "type": "address"
        }
      ],
      "stateMutability": "view",
      "type": "function"
    },
    {
      "inputs": [],
      "name": "guaranteePercent",
      "outputs": [
        {
          "internalType": "uint256",
          "name": "",
          "type": "uint256"
        }
      ],
      "stateMutability": "view",
      "type": "function"
    },
    {
      "inputs": [
        {
          "internalType": "uint256",
          "name": "",
          "type": "uint256"
        }
      ],
      "name": "orders",
      "outputs": [
        {
          "internalType": "uint256",
          "name": "id",
          "type": "uint256"
        },
        {
          "internalType": "address",
          "name": "seller",
          "type": "address"
        },
        {
          "internalType": "address",
          "name": "buyer",
          "type": "address"
        },
        {
          "internalType": "uint256",
          "name": "createdAt",
          "type": "uint256"
        },
        {
          "internalType": "uint256",
          "name": "deadline",
          "type": "uint256"
        },
        {
          "internalType": "enum Bazaar.OrderState",
          "name": "state",
          "type": "uint8"
        },
        {
          "internalType": "uint256",
          "name": "sourceAsset",
          "type": "uint256"
        },
        {
          "internalType": "address",
          "name": "targetAsset",
          "type": "address"
        },
        {
          "internalType": "uint256",
          "name": "sourceAmount",
          "type": "uint256"
        },
        {
          "internalType": "uint256",
          "name": "targetAmount",
          "type": "uint256"
        }
      ],
      "stateMutability": "view",
      "type": "function"
    },
    {
      "inputs": [],
      "name": "owner",
      "outputs": [
        {
          "internalType": "address",
          "name": "",
          "type": "address"
        }
      ],
      "stateMutability": "view",
      "type": "function"
    },
    {
      "inputs": [],
      "name": "profileContract",
      "outputs": [
        {
          "internalType": "address",
          "name": "",
          "type": "address"
        }
      ],
      "stateMutability": "view",
      "type": "function"
    },
    {
      "inputs": [],
      "name": "renounceOwnership",
      "outputs": [],
      "stateMutability": "nonpayable",
      "type": "function"
    },
    {
      "inputs": [],
      "name": "sellFee",
      "outputs": [
        {
          "internalType": "uint256",
          "name": "",
          "type": "uint256"
        }
      ],
      "stateMutability": "view",
      "type": "function"
    },
    {
      "inputs": [
        {
          "internalType": "address",
          "name": "newOwner",
          "type": "address"
        }
      ],
      "name": "transferOwnership",
      "outputs": [],
      "stateMutability": "nonpayable",
      "type": "function"
    },
    {
      "inputs": [
        {
          "internalType": "address",
          "name": "_feeTo",
          "type": "address"
        }
      ],
      "name": "setFeeTo",
      "outputs": [],
      "stateMutability": "nonpayable",
      "type": "function"
    },
    {
      "inputs": [
        {
          "internalType": "address",
          "name": "_feeToSetter",
          "type": "address"
        }
      ],
      "name": "setFeeToSetter",
      "outputs": [],
      "stateMutability": "nonpayable",
      "type": "function"
    },
    {
      "inputs": [
        {
          "internalType": "uint256",
          "name": "_value",
          "type": "uint256"
        }
      ],
      "name": "setGuaranteePercent",
      "outputs": [],
      "stateMutability": "nonpayable",
      "type": "function"
    },
    {
      "inputs": [
        {
          "internalType": "uint256",
          "name": "_value",
          "type": "uint256"
        }
      ],
      "name": "setCancellationFee",
      "outputs": [],
      "stateMutability": "nonpayable",
      "type": "function"
    },
    {
      "inputs": [
        {
          "internalType": "uint256",
          "name": "_value",
          "type": "uint256"
        }
      ],
      "name": "setSellFee",
      "outputs": [],
      "stateMutability": "nonpayable",
      "type": "function"
    },
    {
      "inputs": [
        {
          "internalType": "uint256",
          "name": "_value",
          "type": "uint256"
        }
      ],
      "name": "setBuyFee",
      "outputs": [],
      "stateMutability": "nonpayable",
      "type": "function"
    },
    {
      "inputs": [
        {
          "internalType": "address",
          "name": "addr",
          "type": "address"
        }
      ],
      "name": "setProfile",
      "outputs": [],
      "stateMutability": "nonpayable",
      "type": "function"
    },
    {
      "inputs": [
        {
          "internalType": "string",
          "name": "_symbol",
          "type": "string"
        }
      ],
      "name": "addAllowedSourceAsset",
      "outputs": [],
      "stateMutability": "nonpayable",
      "type": "function"
    },
    {
      "inputs": [
        {
          "internalType": "uint256",
          "name": "_idx",
          "type": "uint256"
        }
      ],
      "name": "deleteAllowedSourceAsset",
      "outputs": [],
      "stateMutability": "nonpayable",
      "type": "function"
    },
    {
      "inputs": [
        {
          "internalType": "uint256",
          "name": "sourceAsset",
          "type": "uint256"
        },
        {
          "internalType": "uint256",
          "name": "sourceAmount",
          "type": "uint256"
        },
        {
          "internalType": "address",
          "name": "targetAsset",
          "type": "address"
        },
        {
          "internalType": "uint256",
          "name": "targetAmount",
          "type": "uint256"
        },
        {
          "internalType": "uint256",
          "name": "timeout",
          "type": "uint256"
        }
      ],
      "name": "placeOrder",
      "outputs": [
        {
          "internalType": "uint256",
          "name": "",
          "type": "uint256"
        }
      ],
      "stateMutability": "nonpayable",
      "type": "function"
    },
    {
      "inputs": [
        {
          "internalType": "uint256",
          "name": "_orderIdx",
          "type": "uint256"
        }
      ],
      "name": "cancel",
      "outputs": [],
      "stateMutability": "nonpayable",
      "type": "function"
    },
    {
      "inputs": [
        {
          "internalType": "uint256",
          "name": "_orderIdx",
          "type": "uint256"
        }
      ],
      "name": "withdraw",
      "outputs": [],
      "stateMutability": "nonpayable",
      "type": "function"
    },
    {
      "inputs": [
        {
          "internalType": "uint256",
          "name": "_orderIdx",
          "type": "uint256"
        }
      ],
      "name": "buy",
      "outputs": [],
      "stateMutability": "nonpayable",
      "type": "function"
    },
    {
      "inputs": [
        {
          "internalType": "uint256",
          "name": "_orderIdx",
          "type": "uint256"
        }
      ],
      "name": "approveDelivery",
      "outputs": [],
      "stateMutability": "nonpayable",
      "type": "function"
    },
    {
      "inputs": [
        {
          "internalType": "uint256",
          "name": "fromID",
          "type": "uint256"
        },
        {
          "internalType": "uint256",
          "name": "maxLength",
          "type": "uint256"
        },
        {
          "internalType": "address",
          "name": "buyer",
          "type": "address"
        },
        {
          "internalType": "address",
          "name": "seller",
          "type": "address"
        },
        {
          "internalType": "enum Bazaar.OrderState[]",
          "name": "states",
          "type": "uint8[]"
        },
        {
          "internalType": "uint256",
          "name": "fromDate",
          "type": "uint256"
        },
        {
          "internalType": "uint256",
          "name": "toDate",
          "type": "uint256"
        }
      ],
      "name": "fetchOrders",
      "outputs": [
        {
          "components": [
            {
              "internalType": "uint256",
              "name": "id",
              "type": "uint256"
            },
            {
              "internalType": "address",
              "name": "seller",
              "type": "address"
            },
            {
              "internalType": "address",
              "name": "buyer",
              "type": "address"
            },
            {
              "internalType": "uint256",
              "name": "createdAt",
              "type": "uint256"
            },
            {
              "internalType": "uint256",
              "name": "deadline",
              "type": "uint256"
            },
            {
              "internalType": "enum Bazaar.OrderState",
              "name": "state",
              "type": "uint8"
            },
            {
              "internalType": "uint256",
              "name": "sourceAsset",
              "type": "uint256"
            },
            {
              "internalType": "address",
              "name": "targetAsset",
              "type": "address"
            },
            {
              "internalType": "uint256",
              "name": "sourceAmount",
              "type": "uint256"
            },
            {
              "internalType": "uint256",
              "name": "targetAmount",
              "type": "uint256"
            }
          ],
          "internalType": "struct Bazaar.Order[]",
          "name": "",
          "type": "tuple[]"
        }
      ],
      "stateMutability": "view",
      "type": "function"
    }
  ],
  "bytecode": "0x60806040523480156200001157600080fd5b50604051620049ec380380620049ec8339818101604052810190620000379190620003ae565b6000620000496200028c60201b60201c565b9050806000806101000a81548173ffffffffffffffffffffffffffffffffffffffff021916908373ffffffffffffffffffffffffffffffffffffffff1602179055508073ffffffffffffffffffffffffffffffffffffffff16600073ffffffffffffffffffffffffffffffffffffffff167f8be0079c531659141344cd1fd0a4f28419497f9722a3daafe3b4186f6b6457e060405160405180910390a35080600560006101000a81548173ffffffffffffffffffffffffffffffffffffffff021916908373ffffffffffffffffffffffffffffffffffffffff160217905550600260405180604001604052806040518060400160405280600481526020017f474f4c440000000000000000000000000000000000000000000000000000000081525081526020016000151581525090806001815401808255809150506001900390600052602060002090600202016000909190919091506000820151816000019080519060200190620001be92919062000294565b5060208201518160010160006101000a81548160ff02191690831515021790555050506127106006819055506103e86007819055506064600881905550606460098190555033600460006101000a81548173ffffffffffffffffffffffffffffffffffffffff021916908373ffffffffffffffffffffffffffffffffffffffff16021790555033600360006101000a81548173ffffffffffffffffffffffffffffffffffffffff021916908373ffffffffffffffffffffffffffffffffffffffff1602179055505062000445565b600033905090565b828054620002a2906200040f565b90600052602060002090601f016020900481019282620002c6576000855562000312565b82601f10620002e157805160ff191683800117855562000312565b8280016001018555821562000312579182015b8281111562000311578251825591602001919060010190620002f4565b5b50905062000321919062000325565b5090565b5b808211156200034057600081600090555060010162000326565b5090565b600080fd5b600073ffffffffffffffffffffffffffffffffffffffff82169050919050565b6000620003768262000349565b9050919050565b620003888162000369565b81146200039457600080fd5b50565b600081519050620003a8816200037d565b92915050565b600060208284031215620003c757620003c662000344565b5b6000620003d78482850162000397565b91505092915050565b7f4e487b7100000000000000000000000000000000000000000000000000000000600052602260045260246000fd5b600060028204905060018216806200042857607f821691505b602082108114156200043f576200043e620003e0565b5b50919050565b61459780620004556000396000f3fe608060405234801561001057600080fd5b50600436106101b95760003560e01c8063715018a6116100f9578063a85c38ef11610097578063e0b6a1e311610071578063e0b6a1e314610498578063f2fde38b146104b4578063f46901ed146104d0578063f7d7c770146104ec576101b9565b8063a85c38ef14610427578063c94b674b14610460578063d96a094a1461047c576101b9565b80638f86dcd9116100d35780638f86dcd9146103a1578063a2e74af6146103d1578063a3974b21146103ed578063a5de04231461040b576101b9565b8063715018a61461035d5780638b4cee08146103675780638da5cb5b14610383576101b9565b80632b14ca56116101665780633d9e05ac116101405780633d9e05ac146102d557806340e58ee51461030557806347062402146103215780636ef569a51461033f576101b9565b80632b14ca561461027f5780632dd10ad31461029d5780632e1a7d4d146102b9576101b9565b80631148a348116101975780631148a3481461021657806312b48c1e1461023257806323ffa6dd14610263576101b9565b8063017e7e58146101be578063094b7415146101dc5780630cc835a3146101fa575b600080fd5b6101c661050a565b6040516101d391906130b5565b60405180910390f35b6101e4610530565b6040516101f191906130b5565b60405180910390f35b610214600480360381019061020f919061311a565b610556565b005b610230600480360381019061022b919061328d565b6105f5565b005b61024c6004803603810190610247919061311a565b61070f565b60405161025a929190613379565b60405180910390f35b61027d6004803603810190610278919061311a565b6107d8565b005b6102876108ae565b60405161029491906133b8565b60405180910390f35b6102b760048036038101906102b2919061311a565b6108b4565b005b6102d360048036038101906102ce919061311a565b610953565b005b6102ef60048036038101906102ea91906133ff565b610c3d565b6040516102fc91906133b8565b60405180910390f35b61031f600480360381019061031a919061311a565b611120565b005b610329611480565b60405161033691906133b8565b60405180910390f35b610347611486565b60405161035491906133b8565b60405180910390f35b61036561148c565b005b610381600480360381019061037c919061311a565b6115df565b005b61038b61167e565b60405161039891906130b5565b60405180910390f35b6103bb60048036038101906103b69190613567565b6116a7565b6040516103c89190613836565b60405180910390f35b6103eb60048036038101906103e69190613858565b611bca565b005b6103f5611c9e565b60405161040291906130b5565b60405180910390f35b6104256004803603810190610420919061311a565b611cc4565b005b610441600480360381019061043c919061311a565b611d63565b6040516104579a99989796959493929190613894565b60405180910390f35b61047a6004803603810190610475919061311a565b611e34565b005b6104966004803603810190610491919061311a565b612228565b005b6104b260048036038101906104ad9190613858565b61258a565b005b6104ce60048036038101906104c99190613858565b612663565b005b6104ea60048036038101906104e59190613858565b612704565b005b6104f46127d8565b60405161050191906133b8565b60405180910390f35b600360009054906101000a900473ffffffffffffffffffffffffffffffffffffffff1681565b600460009054906101000a900473ffffffffffffffffffffffffffffffffffffffff1681565b61055e6127de565b73ffffffffffffffffffffffffffffffffffffffff1660008054906101000a900473ffffffffffffffffffffffffffffffffffffffff1673ffffffffffffffffffffffffffffffffffffffff16146105eb576040517f08c379a00000000000000000000000000000000000000000000000000000000081526004016105e29061397c565b60405180910390fd5b8060098190555050565b6105fd6127de565b73ffffffffffffffffffffffffffffffffffffffff1660008054906101000a900473ffffffffffffffffffffffffffffffffffffffff1673ffffffffffffffffffffffffffffffffffffffff161461068a576040517f08c379a00000000000000000000000000000000000000000000000000000000081526004016106819061397c565b60405180910390fd5b6002604051806040016040528083815260200160001515815250908060018154018082558091505060019003906000526020600020906002020160009091909190915060008201518160000190805190602001906106e9929190612f2a565b5060208201518160010160006101000a81548160ff021916908315150217905550505050565b6002818154811061071f57600080fd5b9060005260206000209060020201600091509050806000018054610742906139cb565b80601f016020809104026020016040519081016040528092919081815260200182805461076e906139cb565b80156107bb5780601f10610790576101008083540402835291602001916107bb565b820191906000526020600020905b81548152906001019060200180831161079e57829003601f168201915b5050505050908060010160009054906101000a900460ff16905082565b6107e06127de565b73ffffffffffffffffffffffffffffffffffffffff1660008054906101000a900473ffffffffffffffffffffffffffffffffffffffff1673ffffffffffffffffffffffffffffffffffffffff161461086d576040517f08c379a00000000000000000000000000000000000000000000000000000000081526004016108649061397c565b60405180910390fd5b600160028281548110610883576108826139fd565b5b906000526020600020906002020160010160006101000a81548160ff02191690831515021790555050565b60085481565b6108bc6127de565b73ffffffffffffffffffffffffffffffffffffffff1660008054906101000a900473ffffffffffffffffffffffffffffffffffffffff1673ffffffffffffffffffffffffffffffffffffffff1614610949576040517f08c379a00000000000000000000000000000000000000000000000000000000081526004016109409061397c565b60405180910390fd5b8060078190555050565b80600180549050811061099b576040517f08c379a000000000000000000000000000000000000000000000000000000000815260040161099290613a78565b60405180910390fd5b81600181815481106109b0576109af6139fd565b5b90600052602060002090600a020160010160009054906101000a900473ffffffffffffffffffffffffffffffffffffffff1673ffffffffffffffffffffffffffffffffffffffff163373ffffffffffffffffffffffffffffffffffffffff1614610a4f576040517f08c379a0000000000000000000000000000000000000000000000000000000008152600401610a4690613ae4565b60405180910390fd5b826000806005811115610a6557610a6461366f565b5b60018381548110610a7957610a786139fd565b5b90600052602060002090600a020160050160009054906101000a900460ff166005811115610aaa57610aa961366f565b5b14610aea576040517f08c379a0000000000000000000000000000000000000000000000000000000008152600401610ae190613b50565b60405180910390fd5b8460018181548110610aff57610afe6139fd565b5b90600052602060002090600a020160040154421015610b53576040517f08c379a0000000000000000000000000000000000000000000000000000000008152600401610b4a90613be2565b60405180910390fd5b600060018781548110610b6957610b686139fd565b5b90600052602060002090600a0201905060058160050160006101000a81548160ff02191690836005811115610ba157610ba061366f565b5b02179055506000610bb1886127e6565b9050610c068260070160009054906101000a900473ffffffffffffffffffffffffffffffffffffffff168360010160009054906101000a900473ffffffffffffffffffffffffffffffffffffffff1683612843565b877fc7d43b3723bab504e5057a41f205352c6c386c65f7e84f61e02775958cb9046e60405160405180910390a25050505050505050565b6000600560009054906101000a900473ffffffffffffffffffffffffffffffffffffffff1673ffffffffffffffffffffffffffffffffffffffff1663b2dd5c07336040518263ffffffff1660e01b8152600401610c9a91906130b5565b602060405180830381865afa158015610cb7573d6000803e3d6000fd5b505050506040513d601f19601f82011682018060405250810190610cdb9190613c2e565b610d1a576040517f08c379a0000000000000000000000000000000000000000000000000000000008152600401610d1190613ca7565b60405180910390fd5b8560028054905081108015610d5f575060028181548110610d3e57610d3d6139fd565b5b906000526020600020906002020160010160009054906101000a900460ff16155b610d9e576040517f08c379a0000000000000000000000000000000000000000000000000000000008152600401610d9590613d13565b60405180910390fd5b60008611610de1576040517f08c379a0000000000000000000000000000000000000000000000000000000008152600401610dd890613d7f565b60405180910390fd5b60008411610e24576040517f08c379a0000000000000000000000000000000000000000000000000000000008152600401610e1b90613deb565b60405180910390fd5b610e2c612fb0565b60018054905081600001818152505033816020019073ffffffffffffffffffffffffffffffffffffffff16908173ffffffffffffffffffffffffffffffffffffffff16815250508342610e7f9190613e3a565b81608001818152505042816060018181525050878160c00181815250508681610100018181525050858160e0019073ffffffffffffffffffffffffffffffffffffffff16908173ffffffffffffffffffffffffffffffffffffffff1681525050848161012001818152505060008160a001906005811115610f0357610f0261366f565b5b90816005811115610f1757610f1661366f565b5b8152505060018190806001815401808255809150506001900390600052602060002090600a02016000909190919091506000820151816000015560208201518160010160006101000a81548173ffffffffffffffffffffffffffffffffffffffff021916908373ffffffffffffffffffffffffffffffffffffffff16021790555060408201518160020160006101000a81548173ffffffffffffffffffffffffffffffffffffffff021916908373ffffffffffffffffffffffffffffffffffffffff160217905550606082015181600301556080820151816004015560a08201518160050160006101000a81548160ff0219169083600581111561101e5761101d61366f565b5b021790555060c0820151816006015560e08201518160070160006101000a81548173ffffffffffffffffffffffffffffffffffffffff021916908373ffffffffffffffffffffffffffffffffffffffff16021790555061010082015181600801556101208201518160090155505060006110b8620186a06110aa6006548961297990919063ffffffff16565b6129f490919063ffffffff16565b90506110ca8260e00151333084612a3e565b7fa31b25f9f8024f296d86812c9fd5e43e790f3ecf9c6161c6cfe69ba05280b4ae826040516110f99190613f5c565b60405180910390a1600180805490506111129190613f78565b935050505095945050505050565b806001805490508110611168576040517f08c379a000000000000000000000000000000000000000000000000000000000815260040161115f90613a78565b60405180910390fd5b816001818154811061117d5761117c6139fd565b5b90600052602060002090600a020160010160009054906101000a900473ffffffffffffffffffffffffffffffffffffffff1673ffffffffffffffffffffffffffffffffffffffff163373ffffffffffffffffffffffffffffffffffffffff161461121c576040517f08c379a000000000000000000000000000000000000000000000000000000000815260040161121390613ae4565b60405180910390fd5b8260008060058111156112325761123161366f565b5b60018381548110611246576112456139fd565b5b90600052602060002090600a020160050160009054906101000a900460ff1660058111156112775761127661366f565b5b146112b7576040517f08c379a00000000000000000000000000000000000000000000000000000000081526004016112ae90613b50565b60405180910390fd5b84600181815481106112cc576112cb6139fd565b5b90600052602060002090600a020160040154421061131f576040517f08c379a000000000000000000000000000000000000000000000000000000000815260040161131690613ff8565b60405180910390fd5b600060018781548110611335576113346139fd565b5b90600052602060002090600a0201905060048160050160006101000a81548160ff0219169083600581111561136d5761136c61366f565b5b0217905550600061137d886127e6565b9050600061138a89612b77565b905060006113a18284612bd490919063ffffffff16565b90506113f48460070160009054906101000a900473ffffffffffffffffffffffffffffffffffffffff16600360009054906101000a900473ffffffffffffffffffffffffffffffffffffffff1684612843565b6114478460070160009054906101000a900473ffffffffffffffffffffffffffffffffffffffff168560010160009054906101000a900473ffffffffffffffffffffffffffffffffffffffff1683612843565b897fc41f4ceb2938876c35e61b705e9d2f18a02c4a26ce5e049a6308a943d46851b360405160405180910390a250505050505050505050565b60095481565b60075481565b6114946127de565b73ffffffffffffffffffffffffffffffffffffffff1660008054906101000a900473ffffffffffffffffffffffffffffffffffffffff1673ffffffffffffffffffffffffffffffffffffffff1614611521576040517f08c379a00000000000000000000000000000000000000000000000000000000081526004016115189061397c565b60405180910390fd5b600073ffffffffffffffffffffffffffffffffffffffff1660008054906101000a900473ffffffffffffffffffffffffffffffffffffffff1673ffffffffffffffffffffffffffffffffffffffff167f8be0079c531659141344cd1fd0a4f28419497f9722a3daafe3b4186f6b6457e060405160405180910390a360008060006101000a81548173ffffffffffffffffffffffffffffffffffffffff021916908373ffffffffffffffffffffffffffffffffffffffff160217905550565b6115e76127de565b73ffffffffffffffffffffffffffffffffffffffff1660008054906101000a900473ffffffffffffffffffffffffffffffffffffffff1673ffffffffffffffffffffffffffffffffffffffff1614611674576040517f08c379a000000000000000000000000000000000000000000000000000000000815260040161166b9061397c565b60405180910390fd5b8060088190555050565b60008060009054906101000a900473ffffffffffffffffffffffffffffffffffffffff16905090565b606060008060018054905067ffffffffffffffff8111156116cb576116ca613162565b5b60405190808252806020026020018201604052801561170457816020015b6116f1612fb0565b8152602001906001900390816116e95790505b50905060008a90505b600180549050811015611b085789831061172657611b08565b60006001828154811061173c5761173b6139fd565b5b90600052602060002090600a02019050600073ffffffffffffffffffffffffffffffffffffffff168a73ffffffffffffffffffffffffffffffffffffffff16146117de578973ffffffffffffffffffffffffffffffffffffffff168160020160009054906101000a900473ffffffffffffffffffffffffffffffffffffffff1673ffffffffffffffffffffffffffffffffffffffff16146117dd5750611af5565b5b600073ffffffffffffffffffffffffffffffffffffffff168973ffffffffffffffffffffffffffffffffffffffff1614611870578873ffffffffffffffffffffffffffffffffffffffff168160010160009054906101000a900473ffffffffffffffffffffffffffffffffffffffff1673ffffffffffffffffffffffffffffffffffffffff161461186f5750611af5565b5b600087111561188c57868160030154101561188b5750611af5565b5b60008611156118a85785816003015411156118a75750611af5565b5b600088511115611941576000805b8951811015611932578981815181106118d2576118d16139fd565b5b602002602001015160058111156118ec576118eb61366f565b5b8360050160009054906101000a900460ff1660058111156119105761190f61366f565b5b141561191f5760019150611932565b808061192a90614018565b9150506118b6565b508061193f575050611af5565b505b8060405180610140016040529081600082015481526020016001820160009054906101000a900473ffffffffffffffffffffffffffffffffffffffff1673ffffffffffffffffffffffffffffffffffffffff1673ffffffffffffffffffffffffffffffffffffffff1681526020016002820160009054906101000a900473ffffffffffffffffffffffffffffffffffffffff1673ffffffffffffffffffffffffffffffffffffffff1673ffffffffffffffffffffffffffffffffffffffff16815260200160038201548152602001600482015481526020016005820160009054906101000a900460ff166005811115611a3d57611a3c61366f565b5b6005811115611a4f57611a4e61366f565b5b8152602001600682015481526020016007820160009054906101000a900473ffffffffffffffffffffffffffffffffffffffff1673ffffffffffffffffffffffffffffffffffffffff1673ffffffffffffffffffffffffffffffffffffffff16815260200160088201548152602001600982015481525050838581518110611ada57611ad96139fd565b5b60200260200101819052508380611af090614018565b945050505b8080611b0090614018565b91505061170d565b5060008267ffffffffffffffff811115611b2557611b24613162565b5b604051908082528060200260200182016040528015611b5e57816020015b611b4b612fb0565b815260200190600190039081611b435790505b50905060005b83811015611bb857828181518110611b7f57611b7e6139fd565b5b6020026020010151828281518110611b9a57611b996139fd565b5b60200260200101819052508080611bb090614018565b915050611b64565b50809350505050979650505050505050565b600460009054906101000a900473ffffffffffffffffffffffffffffffffffffffff1673ffffffffffffffffffffffffffffffffffffffff163373ffffffffffffffffffffffffffffffffffffffff1614611c5a576040517f08c379a0000000000000000000000000000000000000000000000000000000008152600401611c51906140ad565b60405180910390fd5b80600460006101000a81548173ffffffffffffffffffffffffffffffffffffffff021916908373ffffffffffffffffffffffffffffffffffffffff16021790555050565b600560009054906101000a900473ffffffffffffffffffffffffffffffffffffffff1681565b611ccc6127de565b73ffffffffffffffffffffffffffffffffffffffff1660008054906101000a900473ffffffffffffffffffffffffffffffffffffffff1673ffffffffffffffffffffffffffffffffffffffff1614611d59576040517f08c379a0000000000000000000000000000000000000000000000000000000008152600401611d509061397c565b60405180910390fd5b8060068190555050565b60018181548110611d7357600080fd5b90600052602060002090600a02016000915090508060000154908060010160009054906101000a900473ffffffffffffffffffffffffffffffffffffffff16908060020160009054906101000a900473ffffffffffffffffffffffffffffffffffffffff16908060030154908060040154908060050160009054906101000a900460ff16908060060154908060070160009054906101000a900473ffffffffffffffffffffffffffffffffffffffff1690806008015490806009015490508a565b806001805490508110611e7c576040517f08c379a0000000000000000000000000000000000000000000000000000000008152600401611e7390613a78565b60405180910390fd5b8160018181548110611e9157611e906139fd565b5b90600052602060002090600a020160020160009054906101000a900473ffffffffffffffffffffffffffffffffffffffff1673ffffffffffffffffffffffffffffffffffffffff163373ffffffffffffffffffffffffffffffffffffffff1614611f30576040517f08c379a0000000000000000000000000000000000000000000000000000000008152600401611f2790614119565b60405180910390fd5b826001806005811115611f4657611f4561366f565b5b60018381548110611f5a57611f596139fd565b5b90600052602060002090600a020160050160009054906101000a900460ff166005811115611f8b57611f8a61366f565b5b14611fcb576040517f08c379a0000000000000000000000000000000000000000000000000000000008152600401611fc290613b50565b60405180910390fd5b8460018181548110611fe057611fdf6139fd565b5b90600052602060002090600a020160040154421015612034576040517f08c379a000000000000000000000000000000000000000000000000000000000815260040161202b90613be2565b60405180910390fd5b60006001878154811061204a576120496139fd565b5b90600052602060002090600a0201905060038160050160006101000a81548160ff021916908360058111156120825761208161366f565b5b02179055506000612092886127e6565b9050600061209f89612c1e565b905060006120ac8a612c7b565b905060006120c38284612cd890919063ffffffff16565b905060006120f0836120e2878960090154612cd890919063ffffffff16565b612bd490919063ffffffff16565b90506121458660070160009054906101000a900473ffffffffffffffffffffffffffffffffffffffff168760010160009054906101000a900473ffffffffffffffffffffffffffffffffffffffff1683612843565b600073ffffffffffffffffffffffffffffffffffffffff16600360009054906101000a900473ffffffffffffffffffffffffffffffffffffffff1673ffffffffffffffffffffffffffffffffffffffff16146121ed576121ec8660070160009054906101000a900473ffffffffffffffffffffffffffffffffffffffff16600360009054906101000a900473ffffffffffffffffffffffffffffffffffffffff1684612843565b5b8b7f5c1e662f72ee6c85181b65fac5beb0390932b8c472f05b257151d041ac9ddffa60405160405180910390a2505050505050505050505050565b600560009054906101000a900473ffffffffffffffffffffffffffffffffffffffff1673ffffffffffffffffffffffffffffffffffffffff1663b2dd5c07336040518263ffffffff1660e01b815260040161228391906130b5565b602060405180830381865afa1580156122a0573d6000803e3d6000fd5b505050506040513d601f19601f820116820180604052508101906122c49190613c2e565b612303576040517f08c379a00000000000000000000000000000000000000000000000000000000081526004016122fa90613ca7565b60405180910390fd5b80600180549050811061234b576040517f08c379a000000000000000000000000000000000000000000000000000000000815260040161234290613a78565b60405180910390fd5b8160008060058111156123615761236061366f565b5b60018381548110612375576123746139fd565b5b90600052602060002090600a020160050160009054906101000a900460ff1660058111156123a6576123a561366f565b5b146123e6576040517f08c379a00000000000000000000000000000000000000000000000000000000081526004016123dd90613b50565b60405180910390fd5b83600181815481106123fb576123fa6139fd565b5b90600052602060002090600a020160040154421061244e576040517f08c379a000000000000000000000000000000000000000000000000000000000815260040161244590613ff8565b60405180910390fd5b600060018681548110612464576124636139fd565b5b90600052602060002090600a02019050338160020160006101000a81548173ffffffffffffffffffffffffffffffffffffffff021916908373ffffffffffffffffffffffffffffffffffffffff16021790555060018160050160006101000a81548160ff021916908360058111156124df576124de61366f565b5b021790555060006124ef87612c1e565b9050600061250a828460090154612cd890919063ffffffff16565b905061253c8360070160009054906101000a900473ffffffffffffffffffffffffffffffffffffffff16333084612a3e565b3373ffffffffffffffffffffffffffffffffffffffff16887f9ead0d6f534d407e40234c6368c1c7a989d6b3fb557a5efd52f9ded5b505e78e60405160405180910390a35050505050505050565b6125926127de565b73ffffffffffffffffffffffffffffffffffffffff1660008054906101000a900473ffffffffffffffffffffffffffffffffffffffff1673ffffffffffffffffffffffffffffffffffffffff161461261f576040517f08c379a00000000000000000000000000000000000000000000000000000000081526004016126169061397c565b60405180910390fd5b80600560006101000a81548173ffffffffffffffffffffffffffffffffffffffff021916908373ffffffffffffffffffffffffffffffffffffffff16021790555050565b61266b6127de565b73ffffffffffffffffffffffffffffffffffffffff1660008054906101000a900473ffffffffffffffffffffffffffffffffffffffff1673ffffffffffffffffffffffffffffffffffffffff16146126f8576040517f08c379a00000000000000000000000000000000000000000000000000000000081526004016126ef9061397c565b60405180910390fd5b61270181612d36565b50565b600460009054906101000a900473ffffffffffffffffffffffffffffffffffffffff1673ffffffffffffffffffffffffffffffffffffffff163373ffffffffffffffffffffffffffffffffffffffff1614612794576040517f08c379a000000000000000000000000000000000000000000000000000000000815260040161278b906140ad565b60405180910390fd5b80600360006101000a81548173ffffffffffffffffffffffffffffffffffffffff021916908373ffffffffffffffffffffffffffffffffffffffff16021790555050565b60065481565b600033905090565b600080600183815481106127fd576127fc6139fd565b5b90600052602060002090600a0201905061283b620186a061282d600654846009015461297990919063ffffffff16565b6129f490919063ffffffff16565b915050919050565b6000808473ffffffffffffffffffffffffffffffffffffffff1663a9059cbb8585604051602401612875929190614139565b6040516020818303038152906040529060e01b6020820180517bffffffffffffffffffffffffffffffffffffffffffffffffffffffff83818316178352505050506040516128c391906141a9565b6000604051808303816000865af19150503d8060008114612900576040519150601f19603f3d011682016040523d82523d6000602084013e612905565b606091505b509150915081801561293357506000815114806129325750808060200190518101906129319190613c2e565b5b5b612972576040517f08c379a00000000000000000000000000000000000000000000000000000000081526004016129699061420c565b60405180910390fd5b5050505050565b60008083141561298c57600090506129ee565b6000828461299a919061422c565b90508284826129a991906142b5565b146129e9576040517f08c379a00000000000000000000000000000000000000000000000000000000081526004016129e090614358565b60405180910390fd5b809150505b92915050565b6000612a3683836040518060400160405280601a81526020017f536166654d6174683a206469766973696f6e206279207a65726f000000000000815250612e63565b905092915050565b6000808573ffffffffffffffffffffffffffffffffffffffff166323b872dd868686604051602401612a7293929190614378565b6040516020818303038152906040529060e01b6020820180517bffffffffffffffffffffffffffffffffffffffffffffffffffffffff8381831617835250505050604051612ac091906141a9565b6000604051808303816000865af19150503d8060008114612afd576040519150601f19603f3d011682016040523d82523d6000602084013e612b02565b606091505b5091509150818015612b305750600081511480612b2f575080806020019051810190612b2e9190613c2e565b5b5b612b6f576040517f08c379a0000000000000000000000000000000000000000000000000000000008152600401612b6690614421565b60405180910390fd5b505050505050565b60008060018381548110612b8e57612b8d6139fd565b5b90600052602060002090600a02019050612bcc620186a0612bbe600754846009015461297990919063ffffffff16565b6129f490919063ffffffff16565b915050919050565b6000612c1683836040518060400160405280601e81526020017f536166654d6174683a207375627472616374696f6e206f766572666c6f770000815250612ec6565b905092915050565b60008060018381548110612c3557612c346139fd565b5b90600052602060002090600a02019050612c73620186a0612c65600954846009015461297990919063ffffffff16565b6129f490919063ffffffff16565b915050919050565b60008060018381548110612c9257612c916139fd565b5b90600052602060002090600a02019050612cd0620186a0612cc2600854846009015461297990919063ffffffff16565b6129f490919063ffffffff16565b915050919050565b6000808284612ce79190613e3a565b905083811015612d2c576040517f08c379a0000000000000000000000000000000000000000000000000000000008152600401612d239061448d565b60405180910390fd5b8091505092915050565b600073ffffffffffffffffffffffffffffffffffffffff168173ffffffffffffffffffffffffffffffffffffffff161415612da6576040517f08c379a0000000000000000000000000000000000000000000000000000000008152600401612d9d9061451f565b60405180910390fd5b8073ffffffffffffffffffffffffffffffffffffffff1660008054906101000a900473ffffffffffffffffffffffffffffffffffffffff1673ffffffffffffffffffffffffffffffffffffffff167f8be0079c531659141344cd1fd0a4f28419497f9722a3daafe3b4186f6b6457e060405160405180910390a3806000806101000a81548173ffffffffffffffffffffffffffffffffffffffff021916908373ffffffffffffffffffffffffffffffffffffffff16021790555050565b60008083118290612eaa576040517f08c379a0000000000000000000000000000000000000000000000000000000008152600401612ea1919061453f565b60405180910390fd5b5060008385612eb991906142b5565b9050809150509392505050565b6000838311158290612f0e576040517f08c379a0000000000000000000000000000000000000000000000000000000008152600401612f05919061453f565b60405180910390fd5b5060008385612f1d9190613f78565b9050809150509392505050565b828054612f36906139cb565b90600052602060002090601f016020900481019282612f585760008555612f9f565b82601f10612f7157805160ff1916838001178555612f9f565b82800160010185558215612f9f579182015b82811115612f9e578251825591602001919060010190612f83565b5b509050612fac9190613057565b5090565b60405180610140016040528060008152602001600073ffffffffffffffffffffffffffffffffffffffff168152602001600073ffffffffffffffffffffffffffffffffffffffff16815260200160008152602001600081526020016000600581111561301f5761301e61366f565b5b815260200160008152602001600073ffffffffffffffffffffffffffffffffffffffff16815260200160008152602001600081525090565b5b80821115613070576000816000905550600101613058565b5090565b600073ffffffffffffffffffffffffffffffffffffffff82169050919050565b600061309f82613074565b9050919050565b6130af81613094565b82525050565b60006020820190506130ca60008301846130a6565b92915050565b6000604051905090565b600080fd5b600080fd5b6000819050919050565b6130f7816130e4565b811461310257600080fd5b50565b600081359050613114816130ee565b92915050565b6000602082840312156131305761312f6130da565b5b600061313e84828501613105565b91505092915050565b600080fd5b600080fd5b6000601f19601f8301169050919050565b7f4e487b7100000000000000000000000000000000000000000000000000000000600052604160045260246000fd5b61319a82613151565b810181811067ffffffffffffffff821117156131b9576131b8613162565b5b80604052505050565b60006131cc6130d0565b90506131d88282613191565b919050565b600067ffffffffffffffff8211156131f8576131f7613162565b5b61320182613151565b9050602081019050919050565b82818337600083830152505050565b600061323061322b846131dd565b6131c2565b90508281526020810184848401111561324c5761324b61314c565b5b61325784828561320e565b509392505050565b600082601f83011261327457613273613147565b5b813561328484826020860161321d565b91505092915050565b6000602082840312156132a3576132a26130da565b5b600082013567ffffffffffffffff8111156132c1576132c06130df565b5b6132cd8482850161325f565b91505092915050565b600081519050919050565b600082825260208201905092915050565b60005b838110156133105780820151818401526020810190506132f5565b8381111561331f576000848401525b50505050565b6000613330826132d6565b61333a81856132e1565b935061334a8185602086016132f2565b61335381613151565b840191505092915050565b60008115159050919050565b6133738161335e565b82525050565b600060408201905081810360008301526133938185613325565b90506133a2602083018461336a565b9392505050565b6133b2816130e4565b82525050565b60006020820190506133cd60008301846133a9565b92915050565b6133dc81613094565b81146133e757600080fd5b50565b6000813590506133f9816133d3565b92915050565b600080600080600060a0868803121561341b5761341a6130da565b5b600061342988828901613105565b955050602061343a88828901613105565b945050604061344b888289016133ea565b935050606061345c88828901613105565b925050608061346d88828901613105565b9150509295509295909350565b600067ffffffffffffffff82111561349557613494613162565b5b602082029050602081019050919050565b600080fd5b600681106134b857600080fd5b50565b6000813590506134ca816134ab565b92915050565b60006134e36134de8461347a565b6131c2565b90508083825260208201905060208402830185811115613506576135056134a6565b5b835b8181101561352f578061351b88826134bb565b845260208401935050602081019050613508565b5050509392505050565b600082601f83011261354e5761354d613147565b5b813561355e8482602086016134d0565b91505092915050565b600080600080600080600060e0888a031215613586576135856130da565b5b60006135948a828b01613105565b97505060206135a58a828b01613105565b96505060406135b68a828b016133ea565b95505060606135c78a828b016133ea565b945050608088013567ffffffffffffffff8111156135e8576135e76130df565b5b6135f48a828b01613539565b93505060a06136058a828b01613105565b92505060c06136168a828b01613105565b91505092959891949750929550565b600081519050919050565b600082825260208201905092915050565b6000819050602082019050919050565b61365a816130e4565b82525050565b61366981613094565b82525050565b7f4e487b7100000000000000000000000000000000000000000000000000000000600052602160045260246000fd5b600681106136af576136ae61366f565b5b50565b60008190506136c08261369e565b919050565b60006136d0826136b2565b9050919050565b6136e0816136c5565b82525050565b610140820160008201516136fd6000850182613651565b5060208201516137106020850182613660565b5060408201516137236040850182613660565b5060608201516137366060850182613651565b5060808201516137496080850182613651565b5060a082015161375c60a08501826136d7565b5060c082015161376f60c0850182613651565b5060e082015161378260e0850182613660565b50610100820151613797610100850182613651565b506101208201516137ac610120850182613651565b50505050565b60006137be83836136e6565b6101408301905092915050565b6000602082019050919050565b60006137e382613625565b6137ed8185613630565b93506137f883613641565b8060005b8381101561382957815161381088826137b2565b975061381b836137cb565b9250506001810190506137fc565b5085935050505092915050565b6000602082019050818103600083015261385081846137d8565b905092915050565b60006020828403121561386e5761386d6130da565b5b600061387c848285016133ea565b91505092915050565b61388e816136c5565b82525050565b6000610140820190506138aa600083018d6133a9565b6138b7602083018c6130a6565b6138c4604083018b6130a6565b6138d1606083018a6133a9565b6138de60808301896133a9565b6138eb60a0830188613885565b6138f860c08301876133a9565b61390560e08301866130a6565b6139136101008301856133a9565b6139216101208301846133a9565b9b9a5050505050505050505050565b7f4f776e61626c653a2063616c6c6572206973206e6f7420746865206f776e6572600082015250565b60006139666020836132e1565b915061397182613930565b602082019050919050565b6000602082019050818103600083015261399581613959565b9050919050565b7f4e487b7100000000000000000000000000000000000000000000000000000000600052602260045260246000fd5b600060028204905060018216806139e357607f821691505b602082108114156139f7576139f661399c565b5b50919050565b7f4e487b7100000000000000000000000000000000000000000000000000000000600052603260045260246000fd5b7f42415a4141523a20494e56414c49445f4f524445520000000000000000000000600082015250565b6000613a626015836132e1565b9150613a6d82613a2c565b602082019050919050565b60006020820190508181036000830152613a9181613a55565b9050919050565b7f42415a4141523a204f4e4c595f53454c4c455200000000000000000000000000600082015250565b6000613ace6013836132e1565b9150613ad982613a98565b602082019050919050565b60006020820190508181036000830152613afd81613ac1565b9050919050565b7f42415a4141523a20494e56414c49445f4f524445525f53544154450000000000600082015250565b6000613b3a601b836132e1565b9150613b4582613b04565b602082019050919050565b60006020820190508181036000830152613b6981613b2d565b9050919050565b7f42415a4141523a204f524445525f444541444c494e455f4e4f545f455843454560008201527f4445440000000000000000000000000000000000000000000000000000000000602082015250565b6000613bcc6023836132e1565b9150613bd782613b70565b604082019050919050565b60006020820190508181036000830152613bfb81613bbf565b9050919050565b613c0b8161335e565b8114613c1657600080fd5b50565b600081519050613c2881613c02565b92915050565b600060208284031215613c4457613c436130da565b5b6000613c5284828501613c19565b91505092915050565b7f42415a4141523a204e4f545f5245474953544552454400000000000000000000600082015250565b6000613c916016836132e1565b9150613c9c82613c5b565b602082019050919050565b60006020820190508181036000830152613cc081613c84565b9050919050565b7f42415a4141523a20494e56414c49445f534f555243455f415353455400000000600082015250565b6000613cfd601c836132e1565b9150613d0882613cc7565b602082019050919050565b60006020820190508181036000830152613d2c81613cf0565b9050919050565b7f42415a4141523a20494e56414c49445f534f555243455f414d4f554e54000000600082015250565b6000613d69601d836132e1565b9150613d7482613d33565b602082019050919050565b60006020820190508181036000830152613d9881613d5c565b9050919050565b7f42415a4141523a20494e56414c49445f5441524745545f414d4f554e54000000600082015250565b6000613dd5601d836132e1565b9150613de082613d9f565b602082019050919050565b60006020820190508181036000830152613e0481613dc8565b9050919050565b7f4e487b7100000000000000000000000000000000000000000000000000000000600052601160045260246000fd5b6000613e45826130e4565b9150613e50836130e4565b9250827fffffffffffffffffffffffffffffffffffffffffffffffffffffffffffffffff03821115613e8557613e84613e0b565b5b828201905092915050565b61014082016000820151613ea76000850182613651565b506020820151613eba6020850182613660565b506040820151613ecd6040850182613660565b506060820151613ee06060850182613651565b506080820151613ef36080850182613651565b5060a0820151613f0660a08501826136d7565b5060c0820151613f1960c0850182613651565b5060e0820151613f2c60e0850182613660565b50610100820151613f41610100850182613651565b50610120820151613f56610120850182613651565b50505050565b600061014082019050613f726000830184613e90565b92915050565b6000613f83826130e4565b9150613f8e836130e4565b925082821015613fa157613fa0613e0b565b5b828203905092915050565b7f42415a4141523a204f524445525f444541444c494e455f455843454544454400600082015250565b6000613fe2601f836132e1565b9150613fed82613fac565b602082019050919050565b6000602082019050818103600083015261401181613fd5565b9050919050565b6000614023826130e4565b91507fffffffffffffffffffffffffffffffffffffffffffffffffffffffffffffffff82141561405657614055613e0b565b5b600182019050919050565b7f42415a4141523a20464f5242494444454e000000000000000000000000000000600082015250565b60006140976011836132e1565b91506140a282614061565b602082019050919050565b600060208201905081810360008301526140c68161408a565b9050919050565b7f42415a4141523a204f4e4c595f42555945520000000000000000000000000000600082015250565b60006141036012836132e1565b915061410e826140cd565b602082019050919050565b60006020820190508181036000830152614132816140f6565b9050919050565b600060408201905061414e60008301856130a6565b61415b60208301846133a9565b9392505050565b600081519050919050565b600081905092915050565b600061418382614162565b61418d818561416d565b935061419d8185602086016132f2565b80840191505092915050565b60006141b58284614178565b915081905092915050565b7f5472616e7366657248656c7065723a205452414e534645525f4641494c454400600082015250565b60006141f6601f836132e1565b9150614201826141c0565b602082019050919050565b60006020820190508181036000830152614225816141e9565b9050919050565b6000614237826130e4565b9150614242836130e4565b9250817fffffffffffffffffffffffffffffffffffffffffffffffffffffffffffffffff048311821515161561427b5761427a613e0b565b5b828202905092915050565b7f4e487b7100000000000000000000000000000000000000000000000000000000600052601260045260246000fd5b60006142c0826130e4565b91506142cb836130e4565b9250826142db576142da614286565b5b828204905092915050565b7f536166654d6174683a206d756c7469706c69636174696f6e206f766572666c6f60008201527f7700000000000000000000000000000000000000000000000000000000000000602082015250565b60006143426021836132e1565b915061434d826142e6565b604082019050919050565b6000602082019050818103600083015261437181614335565b9050919050565b600060608201905061438d60008301866130a6565b61439a60208301856130a6565b6143a760408301846133a9565b949350505050565b7f5472616e7366657248656c7065723a205452414e534645525f46524f4d5f464160008201527f494c454400000000000000000000000000000000000000000000000000000000602082015250565b600061440b6024836132e1565b9150614416826143af565b604082019050919050565b6000602082019050818103600083015261443a816143fe565b9050919050565b7f536166654d6174683a206164646974696f6e206f766572666c6f770000000000600082015250565b6000614477601b836132e1565b915061448282614441565b602082019050919050565b600060208201905081810360008301526144a68161446a565b9050919050565b7f4f776e61626c653a206e6577206f776e657220697320746865207a65726f206160008201527f6464726573730000000000000000000000000000000000000000000000000000602082015250565b60006145096026836132e1565b9150614514826144ad565b604082019050919050565b60006020820190508181036000830152614538816144fc565b9050919050565b600060208201905081810360008301526145598184613325565b90509291505056fea26469706673582212209c9ac1e1e3a42bc6fef6730185401963926c9ea453ebf816d7393c85ecda88be64736f6c634300080b0033",
  "immutableReferences": {},
  "source": "// SPDX-License-Identifier: MIT\npragma solidity ^0.8.11;\n\nimport \"./libraries/Ownable.sol\";\nimport \"./interfaces/IERC20.sol\";\nimport \"./interfaces/IProfile.sol\";\nimport \"./libraries/SafeMath.sol\";\nimport \"./libraries/TransferHelper.sol\";\n\ncontract Bazaar is Ownable {\n    using SafeMath for uint256;\n\n    event OrderPlaced(Order order);\n    event OrderCanceled(uint256 indexed orderIdx);\n    event OrderWithdrew(uint256 indexed orderIdx);\n    event OrderSold(uint256 indexed orderIdx, address indexed buyer);\n    event DeliveryApproved(uint256 indexed orderIdx);\n\n    enum OrderState {\n        Placed,\n        Soled,\n        Conflict,\n        Finished,\n        Closed,\n        Withdrew\n    }\n\n    struct SourceAsset {\n        string symbol;\n        bool deleted;\n    }\n\n    struct Order {\n        uint256 id;\n        address seller;\n        address buyer;\n        uint256 createdAt;\n        uint256 deadline; // timestamp of order deadline\n        OrderState state;\n        uint256 sourceAsset; // index of source asset\n        address targetAsset;\n        uint256 sourceAmount;\n        uint256 targetAmount;\n    }\n\n    Order[] public orders;\n    SourceAsset[] public allowedSourceAssets;\n\n    address public feeTo;\n    address public feeToSetter;\n    address public profileContract;\n\n    uint256 public guaranteePercent; // seller guarantee amount by fraction of 1000\n    uint256 public cancellationFee; // cancellation fee by fraction of 1000\n    uint256 public sellFee; // sell fee by fraction of 1000\n    uint256 public buyFee; // buy fee by fraction of 1000\n\n    modifier onlyProfileHolders() {\n        require(\n            IProfile(profileContract).registered(msg.sender),\n            \"BAZAAR: NOT_REGISTERED\"\n        );\n        _;\n    }\n\n    modifier onlySeller(uint256 _orderIdx) {\n        require(msg.sender == orders[_orderIdx].seller, \"BAZAAR: ONLY_SELLER\");\n        _;\n    }\n\n    modifier onlyBuyer(uint256 _orderIdx) {\n        require(msg.sender == orders[_orderIdx].buyer, \"BAZAAR: ONLY_BUYER\");\n        _;\n    }\n\n    modifier validSourceAsset(uint256 _idx) {\n        require(\n            (_idx < allowedSourceAssets.length) &&\n                !allowedSourceAssets[_idx].deleted,\n            \"BAZAAR: INVALID_SOURCE_ASSET\"\n        );\n        _;\n    }\n\n    modifier validOrder(uint256 _idx) {\n        require(_idx < orders.length, \"BAZAAR: INVALID_ORDER\");\n        _;\n    }\n\n    modifier inState(uint256 _orderIdx, OrderState state) {\n        require(\n            orders[_orderIdx].state == state,\n            \"BAZAAR: INVALID_ORDER_STATE\"\n        );\n        _;\n    }\n\n    modifier notExpired(uint256 _orderIdx) {\n        require(\n            block.timestamp < orders[_orderIdx].deadline,\n            \"BAZAAR: ORDER_DEADLINE_EXCEEDED\"\n        );\n        _;\n    }\n\n    modifier expired(uint256 _orderIdx) {\n        require(\n            block.timestamp >= orders[_orderIdx].deadline,\n            \"BAZAAR: ORDER_DEADLINE_NOT_EXCEEDED\"\n        );\n        _;\n    }\n\n    constructor(address _profileContract) {\n        profileContract = _profileContract;\n        allowedSourceAssets.push(SourceAsset(\"GOLD\", false));\n        guaranteePercent = 10_000; // 10% of sale price\n        cancellationFee = 1_000; // 1% of sale price\n        sellFee = 100; // 0.1 of sale price\n        buyFee = 100; // 0.1 of sale price\n        feeToSetter = msg.sender;\n        feeTo = msg.sender;\n    }\n\n    /**\n     * @dev calculate guarantee amount\n     */\n    function calcGuarantee(uint256 _orderIdx) internal view returns (uint256) {\n        Order storage order = orders[_orderIdx];\n\n        return order.targetAmount.mul(guaranteePercent).div(100_000);\n    }\n\n    /**\n     * @dev calculate sell fee\n     */\n    function calcSellFee(uint256 _orderIdx) internal view returns (uint256) {\n        Order storage order = orders[_orderIdx];\n\n        return order.targetAmount.mul(sellFee).div(100_000);\n    }\n\n    /**\n     * @dev calculate buy fee\n     */\n    function calcBuyFee(uint256 _orderIdx) internal view returns (uint256) {\n        Order storage order = orders[_orderIdx];\n\n        return order.targetAmount.mul(buyFee).div(100_000);\n    }\n\n    /**\n     * @dev calculate cancellation fee\n     */\n    function calcCancellationFee(uint256 _orderIdx)\n        internal\n        view\n        returns (uint256)\n    {\n        Order storage order = orders[_orderIdx];\n\n        return order.targetAmount.mul(cancellationFee).div(100_000);\n    }\n\n    /**\n     * @dev set fee to account\n     */\n    function setFeeTo(address _feeTo) external {\n        require(msg.sender == feeToSetter, \"BAZAAR: FORBIDDEN\");\n        feeTo = _feeTo;\n    }\n\n    /**\n     * @dev set fee to setter account\n     */\n    function setFeeToSetter(address _feeToSetter) external {\n        require(msg.sender == feeToSetter, \"BAZAAR: FORBIDDEN\");\n        feeToSetter = _feeToSetter;\n    }\n\n    /**\n     * @dev set guarantee percent\n     */\n    function setGuaranteePercent(uint256 _value) public onlyOwner {\n        guaranteePercent = _value;\n    }\n\n    /**\n     * @dev set cancellation fee\n     */\n    function setCancellationFee(uint256 _value) public onlyOwner {\n        cancellationFee = _value;\n    }\n\n    /**\n     * @dev set sell fee\n     */\n    function setSellFee(uint256 _value) public onlyOwner {\n        sellFee = _value;\n    }\n\n    /**\n     * @dev set buy fee\n     */\n    function setBuyFee(uint256 _value) public onlyOwner {\n        buyFee = _value;\n    }\n\n    /**\n     * @dev change profile contract address\n     */\n    function setProfile(address addr) public onlyOwner {\n        profileContract = addr;\n    }\n\n    /**\n     * @dev add new allowed source asset\n     */\n    function addAllowedSourceAsset(string memory _symbol) public onlyOwner {\n        allowedSourceAssets.push(SourceAsset(_symbol, false));\n    }\n\n    /**\n     * @dev delete allowed source asset\n     */\n    function deleteAllowedSourceAsset(uint256 _idx) public onlyOwner {\n        allowedSourceAssets[_idx].deleted = true;\n    }\n\n    /**\n     * @dev create a new order\n     */\n    function placeOrder(\n        uint256 sourceAsset,\n        uint256 sourceAmount,\n        address targetAsset,\n        uint256 targetAmount,\n        uint256 timeout\n    )\n        public\n        onlyProfileHolders\n        validSourceAsset(sourceAsset)\n        returns (uint256)\n    {\n        require(sourceAmount > 0, \"BAZAAR: INVALID_SOURCE_AMOUNT\");\n        require(targetAmount > 0, \"BAZAAR: INVALID_TARGET_AMOUNT\");\n\n        Order memory order;\n        order.id = orders.length;\n        order.seller = msg.sender;\n        order.deadline = block.timestamp + timeout;\n        order.createdAt = block.timestamp;\n        order.sourceAsset = sourceAsset;\n        order.sourceAmount = sourceAmount;\n        order.targetAsset = targetAsset;\n        order.targetAmount = targetAmount;\n        order.state = OrderState.Placed;\n\n        orders.push(order);\n\n        // ((targetAmount * guaranteePercent) / 1000) / 100\n        uint256 _guaranteeAmount = targetAmount.mul(guaranteePercent).div(\n            100_000\n        );\n\n        TransferHelper.safeTransferFrom(\n            order.targetAsset,\n            msg.sender,\n            address(this),\n            _guaranteeAmount\n        );\n\n        emit OrderPlaced(order);\n\n        return orders.length - 1;\n    }\n\n    /**\n     * @dev seller cancel's an order\n     */\n    function cancel(uint256 _orderIdx)\n        public\n        validOrder(_orderIdx)\n        onlySeller(_orderIdx)\n        inState(_orderIdx, OrderState.Placed)\n        notExpired(_orderIdx)\n    {\n        Order storage order = orders[_orderIdx];\n\n        order.state = OrderState.Closed;\n\n        uint256 _guaranteeAmount = calcGuarantee(_orderIdx);\n        uint256 _cancellationFee = calcCancellationFee(_orderIdx);\n\n        uint256 _toReturn = _guaranteeAmount.sub(_cancellationFee);\n\n        // transfer cancellation fee\n        TransferHelper.safeTransfer(order.targetAsset, feeTo, _cancellationFee);\n\n        // return rest of guarantee deposit\n        TransferHelper.safeTransfer(order.targetAsset, order.seller, _toReturn);\n\n        emit OrderCanceled(_orderIdx);\n    }\n\n    /**\n     * @dev withdraw guarantee amount for expired orders\n     */\n    function withdraw(uint256 _orderIdx)\n        public\n        validOrder(_orderIdx)\n        onlySeller(_orderIdx)\n        inState(_orderIdx, OrderState.Placed)\n        expired(_orderIdx)\n    {\n        Order storage order = orders[_orderIdx];\n\n        order.state = OrderState.Withdrew;\n\n        uint256 _guaranteeAmount = calcGuarantee(_orderIdx);\n\n        TransferHelper.safeTransfer(\n            order.targetAsset,\n            order.seller,\n            _guaranteeAmount\n        );\n\n        emit OrderWithdrew(_orderIdx);\n    }\n\n    /**\n     * @dev buy an asset\n     */\n    function buy(uint256 _orderIdx)\n        public\n        onlyProfileHolders\n        validOrder(_orderIdx)\n        inState(_orderIdx, OrderState.Placed)\n        notExpired(_orderIdx)\n    {\n        Order storage order = orders[_orderIdx];\n        order.buyer = msg.sender;\n        order.state = OrderState.Soled;\n\n        uint256 _buyFee = calcBuyFee(_orderIdx);\n\n        uint256 _totalDepo = order.targetAmount.add(_buyFee);\n\n        TransferHelper.safeTransferFrom(\n            order.targetAsset,\n            msg.sender,\n            address(this),\n            _totalDepo\n        );\n\n        emit OrderSold(_orderIdx, msg.sender);\n    }\n\n    /**\n     * @dev buyer approves that recieved asset\n     */\n    function approveDelivery(uint256 _orderIdx)\n        public\n        validOrder(_orderIdx)\n        onlyBuyer(_orderIdx)\n        inState(_orderIdx, OrderState.Soled)\n        expired(_orderIdx)\n    {\n        Order storage order = orders[_orderIdx];\n        order.state = OrderState.Finished;\n\n        uint256 _guaranteeAmount = calcGuarantee(_orderIdx);\n        uint256 _buyFee = calcBuyFee(_orderIdx);\n        uint256 _sellFee = calcSellFee(_orderIdx);\n\n        uint256 _totalFee = _buyFee.add(_sellFee);\n\n        uint256 _transferAmount = order.targetAmount.add(_guaranteeAmount).sub(\n            _sellFee\n        );\n\n        TransferHelper.safeTransfer(\n            order.targetAsset,\n            order.seller,\n            _transferAmount\n        );\n\n        if (feeTo != address(0)) {\n            TransferHelper.safeTransfer(order.targetAsset, feeTo, _totalFee);\n        }\n\n        emit DeliveryApproved(_orderIdx);\n    }\n\n    function fetchOrders(\n        uint256 fromID,\n        uint256 maxLength,\n        address buyer,\n        address seller,\n        OrderState[] memory states,\n        uint256 fromDate,\n        uint256 toDate\n    ) public view returns (Order[] memory) {\n        uint256 count = 0;\n        Order[] memory _upfrontOrders = new Order[](orders.length);\n\n        for (uint256 i = fromID; i < orders.length; i++) {\n            if (count >= maxLength) break;\n\n            Order storage _order = orders[i];\n\n            if (buyer != address(0)) {\n                if (_order.buyer != buyer) {\n                    continue;\n                }\n            }\n\n            if (seller != address(0)) {\n                if (_order.seller != seller) {\n                    continue;\n                }\n            }\n\n            if (fromDate > 0) {\n                if (_order.createdAt < fromDate) {\n                    continue;\n                }\n            }\n\n            if (toDate > 0) {\n                if (_order.createdAt > toDate) {\n                    continue;\n                }\n            }\n\n            if (states.length > 0) {\n                bool found = false;\n\n                for (uint256 l = 0; l < states.length; l++) {\n                    if (_order.state == states[l]) {\n                        found = true;\n                        break;\n                    }\n                }\n\n                if (!found) continue;\n            }\n\n            _upfrontOrders[count] = _order;\n            count++;\n        }\n\n        Order[] memory _orders = new Order[](count);\n\n        for (uint256 i = 0; i < count; i++) {\n            _orders[i] = _upfrontOrders[i];\n        }\n\n        return _orders;\n    }\n}\n",
  "sourcePath": "/Users/bulwark/Projects/ecosc/bazaar/contracts/Bazaar.sol",
  "compiler": {
    "name": "solc",
    "version": "0.8.11+commit.d7f03943.Emscripten.clang"
  },
  "schemaVersion": "3.4.4",
  "updatedAt": "2022-02-12T09:03:19.714Z",
  "devdoc": {
    "kind": "dev",
    "methods": {
      "addAllowedSourceAsset(string)": {
        "details": "add new allowed source asset"
      },
      "approveDelivery(uint256)": {
        "details": "buyer approves that recieved asset"
      },
      "buy(uint256)": {
        "details": "buy an asset"
      },
      "cancel(uint256)": {
        "details": "seller cancel's an order"
      },
      "deleteAllowedSourceAsset(uint256)": {
        "details": "delete allowed source asset"
      },
      "owner()": {
        "details": "Returns the address of the current owner."
      },
      "placeOrder(uint256,uint256,address,uint256,uint256)": {
        "details": "create a new order"
      },
      "renounceOwnership()": {
        "details": "Leaves the contract without owner. It will not be possible to call `onlyOwner` functions anymore. Can only be called by the current owner. NOTE: Renouncing ownership will leave the contract without an owner, thereby removing any functionality that is only available to the owner."
      },
      "setBuyFee(uint256)": {
        "details": "set buy fee"
      },
      "setCancellationFee(uint256)": {
        "details": "set cancellation fee"
      },
      "setFeeTo(address)": {
        "details": "set fee to account"
      },
      "setFeeToSetter(address)": {
        "details": "set fee to setter account"
      },
      "setGuaranteePercent(uint256)": {
        "details": "set guarantee percent"
      },
      "setProfile(address)": {
        "details": "change profile contract address"
      },
      "setSellFee(uint256)": {
        "details": "set sell fee"
      },
      "transferOwnership(address)": {
        "details": "Transfers ownership of the contract to a new account (`newOwner`). Can only be called by the current owner."
      },
      "withdraw(uint256)": {
        "details": "withdraw guarantee amount for expired orders"
      }
    },
    "version": 1
  },
  "userdoc": {
    "kind": "user",
    "methods": {},
    "version": 1
  }
}