{
  "contractName": "Profile",
  "abi": [
    {
      "anonymous": false,
      "inputs": [
        {
          "indexed": true,
          "internalType": "address",
          "name": "previousOwner",
          "type": "address"
        },
        {
          "indexed": true,
          "internalType": "address",
          "name": "newOwner",
          "type": "address"
        }
      ],
      "name": "OwnershipTransferred",
      "type": "event"
    },
    {
      "inputs": [
        {
          "internalType": "address",
          "name": "",
          "type": "address"
        }
      ],
      "name": "accounts",
      "outputs": [
        {
          "internalType": "string",
          "name": "name",
          "type": "string"
        },
        {
          "internalType": "string",
          "name": "contact",
          "type": "string"
        },
        {
          "internalType": "enum Profile.UserState",
          "name": "state",
          "type": "uint8"
        }
      ],
      "stateMutability": "view",
      "type": "function"
    },
    {
      "inputs": [],
      "name": "numAccounts",
      "outputs": [
        {
          "internalType": "uint256",
          "name": "",
          "type": "uint256"
        }
      ],
      "stateMutability": "view",
      "type": "function"
    },
    {
      "inputs": [],
      "name": "owner",
      "outputs": [
        {
          "internalType": "address",
          "name": "",
          "type": "address"
        }
      ],
      "stateMutability": "view",
      "type": "function"
    },
    {
      "inputs": [],
      "name": "renounceOwnership",
      "outputs": [],
      "stateMutability": "nonpayable",
      "type": "function"
    },
    {
      "inputs": [
        {
          "internalType": "address",
          "name": "newOwner",
          "type": "address"
        }
      ],
      "name": "transferOwnership",
      "outputs": [],
      "stateMutability": "nonpayable",
      "type": "function"
    },
    {
      "inputs": [
        {
          "internalType": "string",
          "name": "_name",
          "type": "string"
        },
        {
          "internalType": "string",
          "name": "_contact",
          "type": "string"
        }
      ],
      "name": "createAccount",
      "outputs": [
        {
          "internalType": "uint256",
          "name": "",
          "type": "uint256"
        }
      ],
      "stateMutability": "nonpayable",
      "type": "function"
    },
    {
      "inputs": [
        {
          "internalType": "string",
          "name": "_name",
          "type": "string"
        },
        {
          "internalType": "string",
          "name": "_contact",
          "type": "string"
        }
      ],
      "name": "updateAccount",
      "outputs": [],
      "stateMutability": "nonpayable",
      "type": "function"
    },
    {
      "inputs": [
        {
          "internalType": "address",
          "name": "account",
          "type": "address"
        }
      ],
      "name": "disableAccount",
      "outputs": [],
      "stateMutability": "nonpayable",
      "type": "function"
    },
    {
      "inputs": [
        {
          "internalType": "address",
          "name": "account",
          "type": "address"
        }
      ],
      "name": "registered",
      "outputs": [
        {
          "internalType": "bool",
          "name": "",
          "type": "bool"
        }
      ],
      "stateMutability": "view",
      "type": "function"
    }
  ],
  "bytecode": "0x608060405234801561001057600080fd5b5060006100216100c460201b60201c565b9050806000806101000a81548173ffffffffffffffffffffffffffffffffffffffff021916908373ffffffffffffffffffffffffffffffffffffffff1602179055508073ffffffffffffffffffffffffffffffffffffffff16600073ffffffffffffffffffffffffffffffffffffffff167f8be0079c531659141344cd1fd0a4f28419497f9722a3daafe3b4186f6b6457e060405160405180910390a3506100cc565b600033905090565b611259806100db6000396000f3fe608060405234801561001057600080fd5b50600436106100a35760003560e01c80638c79ba3a116100765780638da5cb5b1161005b5780638da5cb5b1461016a578063b2dd5c0714610188578063f2fde38b146101b8576100a3565b80638c79ba3a146101305780638ce25a931461014c576100a3565b806319289287146100a8578063534c1bdd146100d85780635e5c06e2146100f4578063715018a614610126575b600080fd5b6100c260048036038101906100bd9190610c99565b6101d4565b6040516100cf9190610d2a565b60405180910390f35b6100f260048036038101906100ed9190610c99565b610313565b005b61010e60048036038101906101099190610da3565b61047b565b60405161011d93929190610ecf565b60405180910390f35b61012e6105c2565b005b61014a60048036038101906101459190610da3565b610715565b005b610154610817565b6040516101619190610d2a565b60405180910390f35b61017261081d565b60405161017f9190610f23565b60405180910390f35b6101a2600480360381019061019d9190610da3565b610846565b6040516101af9190610f59565b60405180910390f35b6101d260048036038101906101cd9190610da3565b6108c6565b005b600080600260003373ffffffffffffffffffffffffffffffffffffffff1673ffffffffffffffffffffffffffffffffffffffff16815260200190815260200160002090506000600281111561022c5761022b610e58565b5b8160020160009054906101000a900460ff1660028111156102505761024f610e58565b5b14610290576040517f08c379a000000000000000000000000000000000000000000000000000000000815260040161028790610fc0565b60405180910390fd5b600160008154809291906102a39061100f565b9190505550838160000190805190602001906102c0929190610a9c565b50828160010190805190602001906102d9929190610a9c565b5060018160020160006101000a81548160ff0219169083600281111561030257610301610e58565b5b021790555060015491505092915050565b6001600281111561032757610326610e58565b5b600260003373ffffffffffffffffffffffffffffffffffffffff1673ffffffffffffffffffffffffffffffffffffffff16815260200190815260200160002060020160009054906101000a900460ff16600281111561038957610388610e58565b5b146103c9576040517f08c379a00000000000000000000000000000000000000000000000000000000081526004016103c0906110a4565b60405180910390fd5b81600260003373ffffffffffffffffffffffffffffffffffffffff1673ffffffffffffffffffffffffffffffffffffffff168152602001908152602001600020600001908051906020019061041f929190610a9c565b5080600260003373ffffffffffffffffffffffffffffffffffffffff1673ffffffffffffffffffffffffffffffffffffffff1681526020019081526020016000206001019080519060200190610476929190610a9c565b505050565b600260205280600052604060002060009150905080600001805461049e906110f3565b80601f01602080910402602001604051908101604052809291908181526020018280546104ca906110f3565b80156105175780601f106104ec57610100808354040283529160200191610517565b820191906000526020600020905b8154815290600101906020018083116104fa57829003601f168201915b50505050509080600101805461052c906110f3565b80601f0160208091040260200160405190810160405280929190818152602001828054610558906110f3565b80156105a55780601f1061057a576101008083540402835291602001916105a5565b820191906000526020600020905b81548152906001019060200180831161058857829003601f168201915b5050505050908060020160009054906101000a900460ff16905083565b6105ca610967565b73ffffffffffffffffffffffffffffffffffffffff1660008054906101000a900473ffffffffffffffffffffffffffffffffffffffff1673ffffffffffffffffffffffffffffffffffffffff1614610657576040517f08c379a000000000000000000000000000000000000000000000000000000000815260040161064e90611171565b60405180910390fd5b600073ffffffffffffffffffffffffffffffffffffffff1660008054906101000a900473ffffffffffffffffffffffffffffffffffffffff1673ffffffffffffffffffffffffffffffffffffffff167f8be0079c531659141344cd1fd0a4f28419497f9722a3daafe3b4186f6b6457e060405160405180910390a360008060006101000a81548173ffffffffffffffffffffffffffffffffffffffff021916908373ffffffffffffffffffffffffffffffffffffffff160217905550565b61071d610967565b73ffffffffffffffffffffffffffffffffffffffff1660008054906101000a900473ffffffffffffffffffffffffffffffffffffffff1673ffffffffffffffffffffffffffffffffffffffff16146107aa576040517f08c379a00000000000000000000000000000000000000000000000000000000081526004016107a190611171565b60405180910390fd5b60028060008373ffffffffffffffffffffffffffffffffffffffff1673ffffffffffffffffffffffffffffffffffffffff16815260200190815260200160002060020160006101000a81548160ff0219169083600281111561080f5761080e610e58565b5b021790555050565b60015481565b60008060009054906101000a900473ffffffffffffffffffffffffffffffffffffffff16905090565b60006001600281111561085c5761085b610e58565b5b600260008473ffffffffffffffffffffffffffffffffffffffff1673ffffffffffffffffffffffffffffffffffffffff16815260200190815260200160002060020160009054906101000a900460ff1660028111156108be576108bd610e58565b5b149050919050565b6108ce610967565b73ffffffffffffffffffffffffffffffffffffffff1660008054906101000a900473ffffffffffffffffffffffffffffffffffffffff1673ffffffffffffffffffffffffffffffffffffffff161461095b576040517f08c379a000000000000000000000000000000000000000000000000000000000815260040161095290611171565b60405180910390fd5b6109648161096f565b50565b600033905090565b600073ffffffffffffffffffffffffffffffffffffffff168173ffffffffffffffffffffffffffffffffffffffff1614156109df576040517f08c379a00000000000000000000000000000000000000000000000000000000081526004016109d690611203565b60405180910390fd5b8073ffffffffffffffffffffffffffffffffffffffff1660008054906101000a900473ffffffffffffffffffffffffffffffffffffffff1673ffffffffffffffffffffffffffffffffffffffff167f8be0079c531659141344cd1fd0a4f28419497f9722a3daafe3b4186f6b6457e060405160405180910390a3806000806101000a81548173ffffffffffffffffffffffffffffffffffffffff021916908373ffffffffffffffffffffffffffffffffffffffff16021790555050565b828054610aa8906110f3565b90600052602060002090601f016020900481019282610aca5760008555610b11565b82601f10610ae357805160ff1916838001178555610b11565b82800160010185558215610b11579182015b82811115610b10578251825591602001919060010190610af5565b5b509050610b1e9190610b22565b5090565b5b80821115610b3b576000816000905550600101610b23565b5090565b6000604051905090565b600080fd5b600080fd5b600080fd5b600080fd5b6000601f19601f8301169050919050565b7f4e487b7100000000000000000000000000000000000000000000000000000000600052604160045260246000fd5b610ba682610b5d565b810181811067ffffffffffffffff82111715610bc557610bc4610b6e565b5b80604052505050565b6000610bd8610b3f565b9050610be48282610b9d565b919050565b600067ffffffffffffffff821115610c0457610c03610b6e565b5b610c0d82610b5d565b9050602081019050919050565b82818337600083830152505050565b6000610c3c610c3784610be9565b610bce565b905082815260208101848484011115610c5857610c57610b58565b5b610c63848285610c1a565b509392505050565b600082601f830112610c8057610c7f610b53565b5b8135610c90848260208601610c29565b91505092915050565b60008060408385031215610cb057610caf610b49565b5b600083013567ffffffffffffffff811115610cce57610ccd610b4e565b5b610cda85828601610c6b565b925050602083013567ffffffffffffffff811115610cfb57610cfa610b4e565b5b610d0785828601610c6b565b9150509250929050565b6000819050919050565b610d2481610d11565b82525050565b6000602082019050610d3f6000830184610d1b565b92915050565b600073ffffffffffffffffffffffffffffffffffffffff82169050919050565b6000610d7082610d45565b9050919050565b610d8081610d65565b8114610d8b57600080fd5b50565b600081359050610d9d81610d77565b92915050565b600060208284031215610db957610db8610b49565b5b6000610dc784828501610d8e565b91505092915050565b600081519050919050565b600082825260208201905092915050565b60005b83811015610e0a578082015181840152602081019050610def565b83811115610e19576000848401525b50505050565b6000610e2a82610dd0565b610e348185610ddb565b9350610e44818560208601610dec565b610e4d81610b5d565b840191505092915050565b7f4e487b7100000000000000000000000000000000000000000000000000000000600052602160045260246000fd5b60038110610e9857610e97610e58565b5b50565b6000819050610ea982610e87565b919050565b6000610eb982610e9b565b9050919050565b610ec981610eae565b82525050565b60006060820190508181036000830152610ee98186610e1f565b90508181036020830152610efd8185610e1f565b9050610f0c6040830184610ec0565b949350505050565b610f1d81610d65565b82525050565b6000602082019050610f386000830184610f14565b92915050565b60008115159050919050565b610f5381610f3e565b82525050565b6000602082019050610f6e6000830184610f4a565b92915050565b7f50524f46494c453a20555345525f455849535453000000000000000000000000600082015250565b6000610faa601483610ddb565b9150610fb582610f74565b602082019050919050565b60006020820190508181036000830152610fd981610f9d565b9050919050565b7f4e487b7100000000000000000000000000000000000000000000000000000000600052601160045260246000fd5b600061101a82610d11565b91507fffffffffffffffffffffffffffffffffffffffffffffffffffffffffffffffff82141561104d5761104c610fe0565b5b600182019050919050565b7f50524f46494c453a20555345525f4e4f545f4558495354530000000000000000600082015250565b600061108e601883610ddb565b915061109982611058565b602082019050919050565b600060208201905081810360008301526110bd81611081565b9050919050565b7f4e487b7100000000000000000000000000000000000000000000000000000000600052602260045260246000fd5b6000600282049050600182168061110b57607f821691505b6020821081141561111f5761111e6110c4565b5b50919050565b7f4f776e61626c653a2063616c6c6572206973206e6f7420746865206f776e6572600082015250565b600061115b602083610ddb565b915061116682611125565b602082019050919050565b6000602082019050818103600083015261118a8161114e565b9050919050565b7f4f776e61626c653a206e6577206f776e657220697320746865207a65726f206160008201527f6464726573730000000000000000000000000000000000000000000000000000602082015250565b60006111ed602683610ddb565b91506111f882611191565b604082019050919050565b6000602082019050818103600083015261121c816111e0565b905091905056fea2646970667358221220cf274fa3d00e113c1141081adc582df34e3304801a10297a043cb5b19cef5bde64736f6c634300080b0033",
  "immutableReferences": {},
  "source": "// SPDX-License-Identifier: MIT\npragma solidity ^0.8.11;\n\nimport './libraries/Ownable.sol';\n\ncontract Profile is Ownable {\n    enum UserState {\n        Unknown,\n        Active,\n        Inactive\n    }\n\n    struct UserProfile {\n        string name;\n        string contact;\n        UserState state;\n    }\n\n    \n    uint256 public numAccounts;\n    mapping(address => UserProfile) public accounts;\n\n    function createAccount(string memory _name, string memory _contact)\n        public\n        returns (uint256)\n    {\n        UserProfile storage profile = accounts[msg.sender];\n\n        require(\n            profile.state == UserState.Unknown,\n            \"PROFILE: USER_EXISTS\"\n        );\n\n        numAccounts++;\n        profile.name = _name;\n        profile.contact = _contact;\n        profile.state = UserState.Active;\n\n        return numAccounts;\n    }\n\n    function updateAccount(string memory _name, string memory _contact) public {\n        require(\n            accounts[msg.sender].state == UserState.Active,\n            \"PROFILE: USER_NOT_EXISTS\"\n        );\n\n        accounts[msg.sender].name = _name;\n        accounts[msg.sender].contact = _contact;\n    }\n\n    function disableAccount(address account) public onlyOwner {\n        accounts[account].state = UserState.Inactive;\n    }\n\n    function registered(address account) public view returns (bool) {\n        return accounts[account].state == UserState.Active;\n    }\n}\n",
  "sourcePath": "/Users/bulwark/Projects/ecosc/bazaar/contracts/Profile.sol",
  "compiler": {
    "name": "solc",
    "version": "0.8.11+commit.d7f03943.Emscripten.clang"
  },
  "schemaVersion": "3.4.4",
  "updatedAt": "2022-02-07T18:11:46.489Z",
  "devdoc": {
    "kind": "dev",
    "methods": {
      "owner()": {
        "details": "Returns the address of the current owner."
      },
      "renounceOwnership()": {
        "details": "Leaves the contract without owner. It will not be possible to call `onlyOwner` functions anymore. Can only be called by the current owner. NOTE: Renouncing ownership will leave the contract without an owner, thereby removing any functionality that is only available to the owner."
      },
      "transferOwnership(address)": {
        "details": "Transfers ownership of the contract to a new account (`newOwner`). Can only be called by the current owner."
      }
    },
    "version": 1
  },
  "userdoc": {
    "kind": "user",
    "methods": {},
    "version": 1
  }
}